:020000040800F2
:10000000E88500200D0300082D3F0008333A000862
:10001000293F000877060008614100080000000041
:100020000000000000000000000000004D02000879
:10003000FD06000800000000A9020008313F00088A
:1000400027030008270300082703000827030008E8
:1000500027030008270300082703000827030008D8
:1000600027030008270300082703000827030008C8
:100070009D0600082703000827030008270300083F
:10008000AD0600082703000827030008270300081F
:100090007D0600082703000827030008270300083F
:1000A0002703000827030008270300082703000888
:1000B0002703000827030008270300082703000878
:1000C0002703000827030008270300082703000868
:1000D00027030008E5400008F54000080D4100082E
:1000E000FF0600082703000827030008270300086D
:1000F00027030008813F00082703000827030008A2
:100100002703000827030008270300082703000827
:100110002703000827030008270300082703000817
:10012000BD060008CD060008DD060008270300080C
:10013000270300080000000000000000270300085B
:100140008D0600082703000827030008270300087E
:1001500027030008ED0600082703000821410008D6
:1001600027030008270300082703000827030008C7
:10017000270300082703000800000000000000001B
:10018000270300082703000800F002F800F04EF8EB
:100190000AA090E8000C82448344AAF10107DA45E2
:1001A00001D100F043F8AFF2090EBAE80F0013F0E6
:1001B000010F18BFFB1A43F0010318470CB70000EA
:1001C0002CB700000A4410F8014B14F00F0508BFCB
:1001D00010F8015B240908BF10F8014B6D1E05D013
:1001E00010F8013B6D1E01F8013BF9D1641E03D0EC
:1001F000641E01F8015BFBD19142E4D3704700001B
:100200000023002400250026103A28BF78C1FBD81F
:10021000520728BF30C148BF0B6070471FB50BF0B5
:1002200018FA00F089F91FBD10B510BD00F0D4F91F
:100230001146FFF7F3FF09F085FC00F0F2F903B473
:10024000FFF7F2FF03BC00F0BDF900002C4B19686A
:100250000868B0E8F04F80F30988BFF36F8F4FF064
:10026000000080F311887047000000000848006813
:10027000006880F308884FF0000080F3148862B6AD
:1002800061B6BFF34F8FBFF36F8F00DF00BF00BFBA
:1002900008ED00E0DFF80C00016841F47001016036
:1002A000704700BF88ED00E0EFF30980BFF36F8F68
:1002B000134B1A681EF0100F08BF20ED108A20E9BA
:1002C000F04F106009B44FF0500080F31188BFF375
:1002D0004F8FBFF36F8F0AF047F94FF0000080F3A4
:1002E000118809BC19680868B0E8F04F1EF0100FBB
:1002F00008BFB0EC108A80F30988BFF36F8F704796
:1003000018000020EFF3058070470000094880477F
:1003100009480047FEE7FEE7FEE7FEE7FEE7FEE7E7
:10032000FEE7FEE7FEE7FEE704480549054A064BFF
:1003300070470000653F000889010008E87F002041
:10034000E8850020E8810020E881002053EA020CC3
:1003500000F069802DE9F04B4FF00006002B1FBF25
:10036000B3FA83F503FA05F424FA05F65E4012BFEA
:100370001643B2FA82F502FA05F4C5F120051EBF54
:1003800022FA05FC44EA0C04203556EA044C4FEAF4
:10039000144418BF641C4FF000084FF0000990424D
:1003A00071EB030C39D3002919BFB1FA81F701FAB7
:1003B00007F6B0FA80F700FA07F6C7F120071EBF6C
:1003C00020FA07FC46EA0C062037B6FBF4FCA7EB44
:1003D0000507103F07F01F0BCBF120060CFA0BFBB3
:1003E0002CFA06F644BFB3460026202FA4BF5E4673
:1003F0004FF0000B5BEA060C08BF4FF0010B19EB46
:100400000B09ABFB027C48EB0608C01B06FB02CCC9
:100410000BFB03CC71EB0C01C1E70B4602464146D6
:100420004846BDE8F08B13B54FF000004FF00001D7
:10043000AFF30080BDE81C40704710B5203AC0F013
:100440000B80B1E81850203AA0E81850B1E81850D5
:10045000A0E81850BFF4F5AF5FEA027C24BFB1E812
:100460001850A0E8185044BF18C918C0BDE8104083
:100470005FEA827C24BF51F8043B40F8043B08BF8C
:100480007047D20728BF31F8023B48BF11F8012B53
:1004900028BF20F8023B48BF00F8012B70474FF0FF
:1004A00000020429C0F0128010F0030C00F01B8041
:1004B000CCF1040CBCF1020F18BF00F8012BA8BF4F
:1004C00020F8022BA1EB0C0100F00DB85FEAC17C13
:1004D00024BF00F8012B00F8012B48BF00F8012BC6
:1004E00070474FF0000200B51346944696462039F7
:1004F00022BFA0E80C50A0E80C50B1F12001BFF4DD
:10050000F7AF090728BFA0E80C5048BF0CC05DF842
:1005100004EB890028BF40F8042B08BF704748BF90
:1005200020F8022B11F0804F18BF00F8012B704704
:10053000704770477047000070B5064C7C44064D0C
:100540007D4403E0206820448047241DAC42F9D15B
:1005500070BD0000A8B30000A8B3000010B500F003
:100560000FF8006810BD10B5044600F009F80460EB
:1005700010BD10B500F00EF8BDE8104000F004B852
:1005800000487047887F0020002801D000F01AB88A
:100590007047000010B5002102A000F04BF80120C8
:1005A00010BD00005349475056464E3A20507572D0
:1005B00065207669727475616C20666E2063616C6B
:1005C0006C65640001491820ABBEFEE726000200FE
:1005D00000487047887F00207546FFF7F9FFAE4658
:1005E00005006946534620F00700854618B020B53F
:1005F000FFF79AFEBDE820404FF000064FF00007DD
:100600004FF000084FF0000B21F00701AC46ACE8BA
:10061000C009ACE8C009ACE8C009ACE8C0098D4627
:10062000704710B50446AFF300802046BDE8104087
:10063000FFF705BE70B505460C460A2000E06D1CAC
:1006400000F011F835B128780028F8D102E0641CD8
:1006500000F009F814B120780028F8D1BDE8704006
:100660000A20AFF3008008B569468DF8000003202A
:10067000ABBE08BD704700BFFEE7000010B50248E2
:1006800000F07AFD10BD00003C02002010B50248C9
:1006900000F072FD10BD00006402002010B5024899
:1006A00001F0D2F810BD0000E404002010B50248AB
:1006B00001F0CAF810BD00008404002010B5024803
:1006C00001F0C2F810BD0000DC01002010B50248A6
:1006D00001F0BAF810BD00004405002010B5024832
:1006E00001F0B2F810BD00002404002010B502484B
:1006F00001F0AAF810BD0000A4050020704710B555
:100700004FF4005001F0BEFA4FF4804001F0BAFA05
:100710004FF4004001F0B6FA10BD704738B50246FC
:100720000020009000BF92F83C00012801D1022077
:1007300038BD012082F83C0000BF0868092816D99E
:100740001068C0680C780A3C04EB44050724AC40F0
:10075000A0431468E0600C780A3C04EB4404886809
:10076000A0401468E46820431468E06013E0106857
:1007700000690C7804EB44050724AC40A0431468DE
:1007800020610C7804EB44048868A0401468246954
:100790002043146820614868072817D21068406B0E
:1007A0000C79641E04EB84051F24AC40A04314683C
:1007B0006063088880B20C79641E04EB8404A04056
:1007C0001468646B20431468606331E048680D2846
:1007D00017D21068006B0C79E41F04EB84051F240A
:1007E000AC40A04314682063088880B20C79E41FF1
:1007F00004EB8404A0401468246B20431468206335
:1008000016E01068C06A0C790D3C04EB84051F24C7
:10081000AC40A0431468E062088880B20C790D3CBB
:1008200004EB8404A0401468E46A20431468E06286
:10083000194B1A4C1068A04206D10868122803D13F
:10084000586840F480005860144C1068A0421CD1D5
:100850000868102802D00868112816D1586840F49A
:1008600000005860086810280FD10D4800680D4C32
:10087000B0FBF4F000EB80004000009002E0009834
:10088000401E009000980028F9D100BF002082F897
:100890003C0000BF00BF4BE70023014000200140A7
:1008A0001400002040420F0070B52DED068B054668
:1008B0006C4885427DD100234FF4C8726A496B4869
:1008C00004F057FC01234FF4C8726949674804F0EB
:1008D00050FC02234FF4C8726649644804F049FC96
:1008E00003234FF4C8726449604804F042FC642159
:1008F0005D4803F087FE614880ED000A64215C4892
:1009000003F080FE5D4880ED010A6421594803F040
:1009100079FE5A4880ED020A6421574803F072FEBE
:10092000564880ED030A002063E0092113E000EB44
:100930008002534B03EBC2034A1E03EB820292ED8B
:10094000000A00EB80024E4B03EBC20202EB810275
:1009500082ED000A491E0029E9DC484901EB8001CB
:1009600091ED000A00EB8001454A02EBC10181EDE7
:10097000000A002115E000EB8002414B03EBC202AC
:1009800002EB810292ED000A3E4A02EB8002D2EDB8
:10099000000A30EE200A3B4A02EB800282ED000A98
:1009A000491C0A29E7DB374901EB800191ED000A78
:1009B00000E053E0F2EE040A80EE201A314901EB28
:1009C000800181ED001A2F4901EB8001D1ED000A71
:1009D0002D4931F8101000EE101AB8EE400A30EE32
:1009E000C00ABCEEC00A10EE101A284A22F81010F5
:1009F000401C042899DB00242EE0244830F8140021
:100A000040F2EE21884203DA0846204921F814001A
:100A10001E4931F814000AF066FA41EC1A0B9FEDFA
:100A20001C1BB0EE4A0AF0EE6A0A07F09DFEB0EE1B
:100A3000409AF0EE609A9FED180B53EC102B51EC9E
:100A4000190B0AF09FFA41EC180B09F0EFFF14495B
:100A500041F82400601CC4B2022CCEDBBDEC068B36
:100A600070BD000094010020544600203443002053
:100A70001C470020E4470020AC48002074490020B7
:100A800084490020244A00207C00002084000020AB
:100A9000666666666666F4BF00000000185D114178
:100AA000344A00207047704770B5044600250CB9E1
:100AB000012070BD1549A06A884200D000BF206C9B
:100AC00030B9204600F024F80020606484F83C002F
:100AD000206C00F0100088B9206C20F4885040F0A1
:100AE00002002064204605F0E9FF00206064206CCD
:100AF00020F0020040F00100206400E0012500BF6A
:100B0000002084F83C0000BF2846D2E70100000F17
:100B100010B586B00446142101A8FFF7E2FC28496D
:100B2000206888424AD100BF002000902548006814
:100B300040F48070234908600846006800F4807023
:100B4000009000BF00BF00BF002000901D48143877
:100B5000006840F004001B4914390860084600682A
:100B600000F00400009000BF00BF0F2001900320A0
:100B700002900020039001A9134801F091F8134856
:100B80001349086000204860002111488160C1605D
:100B90004FF480610161490041618900816149111F
:100BA000C16100210162416200F06EFF08B1FFF7F0
:100BB000B4FD00BF0648A063846300BF06B010BD4B
:100BC0000020014044380240000802401064024006
:100BD000DC010020F8B504460D46164600200090C2
:100BE00000BF94F83C00012801D10220F8BD01208B
:100BF00084F83C0000BF2068806800F00100A0B9C4
:100C00002068806840F001002168886049480068D9
:100C10004949B0FBF1F000EB4000009002E0009881
:100C2000401E009000980028F9D12068806800F0EC
:100C3000010000287CD0206C40F20161884340F420
:100C4000807020642068406800F4806028B1206CC7
:100C500020F4005040F480502064206C00F4805058
:100C6000B0F5805F04D1606C20F00600606401E0A4
:100C70000020606400BF002084F83C0000BF2F4FBC
:100C80002F48A16BC8632F48A16B08642E48A16B45
:100C9000C8646FF02200216808602068406840F056
:100CA0008060216848602068806840F48070216816
:100CB0008860226802F14C0133462A46A06B00F09E
:100CC00059FF786800F01F0018BB2049206888424F
:100CD00013D01F492068884204D1381D006800F0F5
:100CE0001F0050B11B492068884221D11348001DC4
:100CF000006800F01F0010281AD22068806800F0F9
:100D0000405028B92068806840F0804021688860A1
:100D10000EE00E49206888420AD12068806800F001
:100D2000405028B92068806840F080402168886081
:100D300000205BE71400002040420F000023014028
:100D40002F6A0008AD6A0008156A000800200140FB
:100D5000002101400022014010B5024692F82030E7
:100D6000012B01D0022B06D110684069084314689A
:100D70006061002010BD506A40F480205062012064
:100D8000F8E7F0B504460D461E4694F8207020683A
:100D90008368A86800B900E000BF012F01D0022FCE
:100DA0007CD103F0806030B903F0006018B903F023
:100DB0008050002873D0C3F30161022905D9606A0D
:100DC00040F4000060620120F0BD012088403060E6
:100DD000A86860B9B5F800C0E86840EA4C5C2068D3
:100DE00000F5C07000EB0110C0F800C00FE0D5E9BD
:100DF00001C040EACC00D5F80CC040EA0C00D4F8A1
:100E000000C00CF5C07C0CEB011CCCF80000D5F840
:100E100010C0206800F5C07000EB0110C0F804C0DD
:100E2000287D01280ED1206800F5C07000EB01106C
:100E3000406840F4807C206800F5C07000EB011031
:100E4000C0F804C0D079000692F806C040EA0C4011
:100E500092F805C040EA0C2C10794CEA000C20688E
:100E600000F5C07000EB0110C0F80CC0D07800068F
:100E700092F802C040EA0C4092F801C040EA0C200F
:100E800092F800C040EA0C00D4F800C00CF5C07C19
:100E90000CEB011CCCF80800206801E016E00FE024
:100EA00000F5C07000EB0110006840F0010C2068F4
:100EB00000F5C07000EB0110C0F800C0002083E70F
:100EC000606A40F40010606201207DE7606A40F4CF
:100ED00080206062012077E7F0B504460A46216869
:100EE00094F82050012D01D0022D7ED1424901F508
:100EF0000071086840F001000860086820F47C5028
:100F000008600868566A40EA06200860107D00F014
:100F10001F06012000FA06F3C8699843C861A1F5CD
:100F20000071D069C8B9D1F80C029843C1F80C021D
:100F3000908880B2968940EA064601F5107057699C
:100F400040F83760108880B2168940EA064601F5FD
:100F50001070576900EBC7004660D069012819D1AD
:100F6000D1F80C021843C1F80C02908880B21688A0
:100F700040EA064601F51070576940F837609089DD
:100F800080B2168940EA064601F51070576900EBF9
:100F9000C7004660906928B9D1F804029843C1F8A7
:100FA000040204E0D1F804021843C1F804021069F5
:100FB00028B9D1F814029843C1F8140204E0D1F81A
:100FC00014021843C1F81402106A012804D1D1F8A0
:100FD0001C021843C1F81C02D1F8000220F00100E5
:100FE000C1F800020020F0BDFFE7606A40F48020F5
:100FF00060620120F7E7000000640040704770B5B0
:10100000044694F82050012D01D0022D7DD151B914
:101010002068C06800F0030080B9606A40F40010E6
:101020006062012070BD2068006900F0030028B9EB
:10103000606A40F4001060620120F3E7206800F568
:10104000D87000EB0110006800F004009060906818
:1010500040B9206800F5D87000EB01100068400D21
:10106000106007E0206800F5D87000EB0110006800
:10107000C0085060206800F5D87000EB01100068CF
:1010800000F00200D060206800F5D87000EB01107D
:10109000406800F00F001061206800F5D87000EB88
:1010A0000110406800F47F40000A9061206800F55C
:1010B000D87000EB01104068000C5061206800F50A
:1010C000D87000EB011080681870206800F5D870A7
:1010D00000EB0110806800F47F40000A587020681F
:1010E00000F5D87000EB0110806800F47F00000C60
:1010F0009870206800F5D87000EB01108068000E31
:10110000D870206800F5D87000E02FE000EB0110E7
:10111000C0681871206800F5D87000EB0110C06835
:1011200000F47F40000A5871206800F5D87000EB89
:101130000110C06800F47F00000C9871206800F571
:10114000D87000EB0110C068000ED87131B920686A
:10115000C06840F020002668F06005E02068006963
:1011600040F020002668306100205BE7606A40F4B0
:1011700080206062012055E72DE9F05F04460025DC
:10118000206846692068D0F8049020688768206845
:10119000D0F80CA02068D0F810B02068D0F81880E3
:1011A00006F00100002855D007F00100C0B1012071
:1011B0002168886007F0020018B1204600F0D5FAD7
:1011C0000EE007F0040010B145F4006508E007F0F8
:1011D000080010B145F4805502E0204600F0C4FA42
:1011E00007F48070C8B14FF480702168886007F4FC
:1011F000007018B1204600F0BAFA0EE007F48060E3
:1012000010B145F4005508E007F4006010B145F452
:10121000804502E0204600F0A9FA07F48030C8B10A
:101220004FF480302168886007F4003018B1204600
:1012300000F09FFA0EE007F4802010B145F400455D
:1012400008E007F4002010B145F4803502E02046A4
:1012500000F08EFA06F0080038B10AF0100020B154
:1012600045F4007510202168C86006F0040040B104
:101270000AF0080028B108202168C860204600F064
:101280000FFA06F0020038B12068C06800F00300D1
:1012900010B1204600F006FA06F0400038B10BF01D
:1012A000100020B145F4806510202168086106F027
:1012B000200040B10BF0080028B108202168086127
:1012C000204600F01FFA06F0100038B120680069CF
:1012D00000F0030010B1204600F015FA06F40030CB
:1012E00040B109F0100028B1102021684860204664
:1012F00000F00AFA06F4803040B109F0080028B185
:10130000082021684860204600F034FA06F40040C6
:1013100088B309F0040078B306F4807020B108F0B7
:10132000010008B145F0010506F4007020B108F095
:10133000020008B145F0020506F4806020B108F013
:10134000040008B145F0040506F40060A0B108F0FF
:10135000700088B108F07000402817D006DC102813
:101360000BD020280CD0302819D10CE0502810D0F8
:10137000602814D110E01DE019E045F008050FE0E9
:1013800045F010050CE045F0200509E045F040056A
:1013900006E045F0800503E045F4807500E000BFFD
:1013A00000BF2068806920F07000216888610420F7
:1013B000216848602DB1606A284360622046FFF7CB
:1013C0001DFEBDE8F09F70B504460CB9012070BD4C
:1013D00094F8200010B9204600F0B0F820680068AA
:1013E00020F002002168086000F068FD05460DE06D
:1013F00000F064FD401B0A2808D9606A40F4003000
:101400006062052084F820000120E0E72068406841
:1014100000F002000028EBD12068006840F00100D5
:101420002168086000F04AFD05460DE000F046FD29
:10143000401B0A2808D9606A40F400306062052029
:1014400084F820000120C2E72068406800F0010015
:101450000028EBD0207E012806D12068006840F0EB
:1014600080002168086005E02068006820F08000A6
:1014700021680860607E012806D12068006840F07D
:1014800040002168086005E02068006820F0400006
:1014900021680860A07E012806D12068006840F01D
:1014A00020002168086005E02068006820F0200026
:1014B00021680860E07E012806D12068006820F0DD
:1014C00010002168086005E02068006840F0100006
:1014D00021680860207F012806D12068006840F05C
:1014E00008002168086005E02068006820F0080016
:1014F00021680860607F012806D12068006840F0FC
:1015000004002168086005E02068006820F00400FD
:1015100021680860D4E90201084321690843616930
:1015200008436168491E08432168C8610020606261
:10153000012084F82000002049E7000010B586B0A3
:101540000446142101A8FEF7CCFF4F4920688842C9
:1015500042D14E480068401C4C490860084600686B
:1015600001280FD100BF002000904948006840F0DA
:101570000070474908600846006800F0007000905D
:1015800000BF00BF00BF0020009041481038006835
:1015900040F001003E49103908600846006800F03C
:1015A0000100009000BF00BF4FF4C0500190022026
:1015B000029000200390032004900920059001A9C7
:1015C000344800F06DFB00220521142000F026FDB8
:1015D000142000F013FD55E02F492068884251D1B6
:1015E00000BF002000902A48006840F08060284931
:1015F00008600846006800F08060009000BF00BFEF
:1016000022480068401C21490860084600680128FB
:101610000FD100BF002000901D48006840F000700E
:101620001B4908600846006800F00070009000BF89
:1016300000BF00BF0020009015481038006840F03F
:1016400002001349103908600846006800F00200E3
:10165000009000BF00BF4FF4405001900220029064
:1016600000200390032004900920059001A90B4855
:1016700000F016FB00220521402000F0CFFC4020A6
:1016800000F0BCFC06B010BD00640040000000206B
:101690004038024000000240006800400004024060
:1016A0007047000010B50446134B144A0021204631
:1016B000FFF7A5FC1248844217D110480068B0F526
:1016C000817F03D0A0F2031040B903E00A4803F081
:1016D00093FC09E0084803F043FC05E0064A07498B
:1016E000204606F05BFC00BF04E0034A03492046A5
:1016F00006F054FC10BD00005E010020107D0020AB
:101700006402002070477047704770B5044694F833
:101710002000012822D1022084F8200020680068DF
:1017200020F001002168086000F0C8FB05460DE0CC
:1017300000F0C4FB401B0A2808D9606A40F400305E
:101740006062052084F82000012070BD2068406898
:1017500000F001000028EBD16062F6E7606A40F417
:10176000002060620120F0E77047704770477047C3
:1017700070477047704770B50446A56D00F09EFB3A
:10178000064694F83500022808D08020606500BF26
:10179000002084F8340000BF012070BD206800687C
:1017A00020F01600216808602068406920F0800061
:1017B00021684861206C08B9A06C28B120680068D5
:1017C00020F00800216808602068006820F001000F
:1017D000216808600FE000F071FB801B05280AD922
:1017E0002020606500BF002084F8340000BF032083
:1017F00084F83500D1E72068006800F00100002877
:10180000E9D194F85C103F208840A86000BF002018
:1018100084F8340000BF012084F835000020BCE7C4
:10182000014691F83500022803D080204865012048
:101830007047052081F835000868006820F0010035
:101840000A6810600020F3E7F8B504460020009015
:101850008C4800684FF41651B0FBF1F7A56D2E6867
:1018600094F85C1008208840304098B120680068E7
:1018700000F0040070B12068006820F004002168C6
:10188000086094F85C1008208840A860606D40F003
:101890000100606594F85C1001208840304068B118
:1018A0002068406900F0800040B194F85C1001208D
:1018B0008840A860606D40F00200606594F85C109C
:1018C00004208840304068B12068006800F00200C1
:1018D00040B194F85C1004208840A860606D40F02E
:1018E0000400606594F85C1010208840304078B3A4
:1018F0002068006800F0080050B394F85C101020D5
:101900008840A8602068006800F4802080B12068CA
:10191000006800F4002028B9206CC8B12046216C72
:10192000884715E0A06C98B12046A16C88470FE06D
:101930002068006800F4807028B92068006820F0F2
:10194000080021680860206C10B12046216C88478F
:1019500094F85C10202088403040002865D0206832
:10196000006800F0100000285FD094F85C10202080
:101970008840A86094F83500052828D120680068C0
:1019800020F01600216808602068406920F080007F
:1019900021684861206C08B9A06C28B120680068F3
:1019A00020F008002168086094F85C103F2088400F
:1019B000A86000BF002084F8340000BF012084F834
:1019C0003500206D10B12046216D8847F8BD206894
:1019D000006800F4802080B12068006800F40020D6
:1019E00028B9606C10B12046616C88471DE0E06B3F
:1019F000D8B12046E16B884717E02068006800F402
:101A0000807068B92068006820F0100021680860C4
:101A100000BF002084F8340000BF012084F83500A6
:101A2000E06B10B12046E16B8847606D38B3606DA4
:101A300000F00100F0B1052084F83500206800684E
:101A400020F001002168086000BF0098401C009051
:101A5000B84200D905E02068006800F001000028C5
:101A6000F3D100BF00BF002084F8340000BF012084
:101A700084F83500E06C10B12046E16C884700BF67
:101A8000A4E70000140000202DE9F04104460025E1
:101A900000F014FA074614B90120BDE8F081606A2D
:101AA00000B100BF00BF002084F8340000BF022056
:101AB00084F835002068006820F001002168086083
:101AC0000AE000F0FBF9C01B052805D9202060655D
:101AD000032084F83500E0E72068006800F001008A
:101AE0000028EED12068056821480540D4E90101AD
:101AF0000843E16808432169084361690843A16913
:101B00000843E1690843216A08430543606A0428E1
:101B100003D1D4E90B010843054320680560206820
:101B2000456925F00705606A0543606A04280DD100
:101B3000A06A0543E06A48B1204605F085F828B15F
:101B400040206065012084F83500A6E720684561E3
:101B5000204605F0CFF8064694F85C103F208840F8
:101B6000B06000206065012084F83500002094E713
:101B70003F8010F02DE9F04704460D4616461F46FB
:101B80004FF00008D4F8589000BF94F834000128B2
:101B900002D10220BDE8F087012084F8340000BFA4
:101BA00094F83500012825D1022084F83500002062
:101BB00060653B4632462946204605F02FF894F8EA
:101BC0005C103F208840C9F808002068006840F099
:101BD000160021680860206C28B12068006840F079
:101BE0000800216808602068006840F00100216852
:101BF000086006E000BF002084F8340000BF4FF00A
:101C000002084046C6E7000070B5044600F056F9E9
:101C100006462546681C10B104480078054400BFFC
:101C200000F04CF9801BA842FAD370BD10000020D0
:101C300010B50446B4F5005F15D0B4F5804F0AD056
:101C4000B4F5004F17D14FF400410C4800F028F9CB
:101C50000B4908700FE04FF48041084800F020F96C
:101C60000749487007E04FF40051044800F018F9A4
:101C70000349887000BF00BF10BD0000000802408B
:101C8000B800002010B5044604480068204020B188
:101C9000024804602046FFF7CBFF10BD143C014012
:101CA000F8B502460B460025002400200021DCE0A8
:101CB000012606FA01F51E6806EA0504AC4273D156
:101CC0005E68012E08D05E68022E05D05E68112E77
:101CD00002D05E68122E13D190684F000326BE40DA
:101CE000B0434F00DE68BE4030439060506801262C
:101CF0008E40B0431E79C6F300168E4030435060CC
:101D0000D0684F000326BE40B0434F009E68BE40DF
:101D10003043D0605E68022E02D05E68122E13D16E
:101D2000CF0802F1200656F827004E07F70E0F26BF
:101D3000BE40B0434F07FF0E1E69BE403043CF0880
:101D400002F1200646F8270010684F000326BE4027
:101D5000B0431E7906F003064F00BE4030431060CA
:101D60005E6806F08056B6F1805F7DD100BF002628
:101D70000096404E366846F480463E4F3E603E46F2
:101D8000366806F48046009600BF00BF3A4E8F08C2
:101D900056F827008E07370F0F26BE40B043374E48
:101DA000B24202D1002624E05EE0354EB24201D1BB
:101DB00001261EE0334EB24201D1022619E0324E16
:101DC000B24201D1032614E0304EB24201D10426C2
:101DD0000FE02F4EB24201D105260AE02D4EB2424D
:101DE00001D1062605E02C4EB24201D1072600E0C3
:101DF00008268F073F0FBE4030431F4E8F0846F81E
:101E00002700264E3068A0435E6806F48036B6F59B
:101E1000803F00D12043214E3060361D3068A04302
:101E20005E6806F40036B6F5003F00D120431B4E35
:101E3000361D3060361D3068A0435E6806F480169B
:101E4000B6F5801F00D12043144E08363060361D91
:101E50003068A0435E6806F40016B6F5001F00D196
:101E600020430E4E0C363060491C1029FFF420AF81
:101E7000F8BD00004438024008380140000002402C
:101E80000004024000080240000C02400010024022
:101E90000014024000180240001C0240003C0140B7
:101EA000024613690B400BB1012000E0002070478F
:101EB0000AB1816101E00B04836170470148006849
:101EC00070470000080000200348006803490978B3
:101ED00008440149086070470800002010000020F5
:101EE00010B50D48006840F400700B4908600846C2
:101EF000006840F4806008600846006840F4807024
:101F00000860032000F0C8F8002000F007F800F097
:101F10004BF8002010BD0000003C024070B588B0B6
:101F2000044600250026002221462D2000F076F8E8
:101F30002D2000F063F800BF0020019016480068D3
:101F400040F48070144908600846006800F480700E
:101F5000019000BF00BF02A903A800F073F900F0D0
:101F600099F945000D48B5FBF0F0461E0C480D49A7
:101F7000086040F2E7310B48C16046600021016112
:101F8000816000F0C1FF20B9064800F0D8FF08B01A
:101F900070BD0120FBE700004038024040420F00C6
:101FA000002000400406002008B500BF002000907B
:101FB0001148006840F480400F49086008460068F6
:101FC00000F48040009000BF00BF00BF00200090E0
:101FD000081F006840F08050091F0860084600682C
:101FE00000F08050009000BF00BF00220F21901E23
:101FF00000F014F808BD00004438024001460846CD
:10200000002809DB00F01F0301229A4043099B00CE
:1020100003F1E023C3F8002100BF70472DE9F05F12
:1020200080460D461646002705F03CFB074639461C
:102030002A46334601F00700C0F1070ABAF1040F3F
:1020400002D94FF0040A01E0C0F1070AD14600F1BD
:10205000040ABAF1070F02D24FF0000A01E0A0F122
:10206000030AD4464FF0010A0AFA09FAAAF1010A52
:102070000AEA020A0AFA0CFA4FF0010B0BFA0CFBFF
:10208000ABF1010B0BEA030B4AEA0B042146404675
:1020900005F0F4FABDE8F09F00BF00F00702064B20
:1020A00019684FF6FF031940044B0B4343EA022122
:1020B000014B196000BF70470CED00E00000FA050D
:1020C00070B504460D460CB9012070BD5848006833
:1020D00000F00F00A84209D255490D70084600686B
:1020E00000F00F00A84201D00120EEE7207800F0B8
:1020F000020002281DD1207800F00400042805D138
:102100004C48006840F4E0504A490860207800F0EC
:102110000800082805D14748006840F46040454958
:1021200008604448006820F0F000A1680843414975
:102130000860207800F00100A8B36068012807D18A
:102140003C4808380068C0F34040B8B90120BCE7FB
:102150006068022802D06068032807D13548083833
:102160000068C0F3406048B90120AEE73148083844
:102170000068C0F3400008B90120A6E72D480068B8
:1021800020F00300616808432A490860FFF796FEC3
:10219000064609E0FFF792FE801B41F28831884233
:1021A00002D9032091E707E02248006800F00C0004
:1021B0006168B0EB810FEDD11D48006800F00F00A1
:1021C000A84209D91A490D700846006800F00F00AE
:1021D000A84201D0012078E7207800F0040004280C
:1021E00007D11448006820F4E050E1680843114921
:1021F0000860207800F00800082808D10D48006821
:1022000020F46040216940EAC1000A49086000F0FA
:1022100061F808490968C1F30311074A515CC840D5
:102220000649086006480068FFF778FE00204CE782
:10223000003C02400838024074B700081400002037
:102240000C0000200F2202600D4A126802F0030207
:1022500042600B4A126802F0F0028260084A12687B
:1022600002F4E052C260064A126802F46042D208E8
:102270000261044A126802F00F020A60704700000F
:1022800008380240003C02400148006870470000E6
:102290001400002000B5FFF7F7FF04490968C1F3F7
:1022A0008221034A515CC84000BD0000083802404A
:1022B00084B7000800B5FFF7E7FF04490968C1F3D8
:1022C0004231034A515CC84000BD0000083802405A
:1022D00084B700082DE9F047002400250026A14618
:1022E0002548006800F00C0020B1042805D008281B
:1022F0003AD105E0DFF8849039E0DFF8849036E0E9
:102300001D48001F006800F03F041B48001F0068C4
:1023100000F4800078B11A481749091F0968C1F311
:102320008811A0FB01700146224600233846FEF7C3
:102330000DF805460EE011480F49091F0968C1F361
:102340008811A0FB01700146224600233846FDF7A4
:10235000FDFF05460848001F0068C0F30140401C0F
:102360004600B5FBF6F902E0DFF8109000BF00BFB1
:102370004846BDE8F0870000083802400024F40019
:1023800000127A00F8B504460CB90120F8BD207897
:1023900000F00100002874D0F948006800F00C003B
:1023A00004280DD0F648006800F00C00082813D16E
:1023B000F348001F006800F48000B0F5800F0BD1D7
:1023C000EF4808380068C0F34040002859D06068E2
:1023D000002856D10120D9E700BF6068B0F5803FE2
:1023E00008D1E7480838006840F48030E4490839EB
:1023F00008601EE06068B0F5A02F0DD1E0480838F5
:10240000006840F48020DE4908390860084600680A
:1024100040F4803008600CE0D9480838006820F4A7
:102420008030D749083908600846006820F48020C9
:10243000086000BF606890B1FFF740FD054606E008
:10244000FFF73CFD401B642801D903209EE7CC48E0
:1024500008380068C0F340400028F1D011E0FFF7D1
:102460002DFD054606E0FFF729FD401B642801D934
:1024700003208BE7C24808380068C0F340400028BA
:10248000F1D1207800F0020002285FD1BC4800683A
:1024900000F00C0058B1BA48006800F00C000828A1
:1024A0001CD1B748001F006800F48000B0B9B448E0
:1024B00008380068C0F3400020B1E068012801D06E
:1024C000012063E7AE480838006820F0F800216971
:1024D00040EAC100AA490839086037E0E06800B363
:1024E0000120A8490860FFF7E9FC054606E0FFF770
:1024F000E5FC401B022801D9032047E7A048083823
:102500000068C0F340000028F1D09D4808380068FA
:1025100020F0F800216940EAC100994908390860B3
:1025200014E0002097490860FFF7C8FC054606E064
:10253000FFF7C4FC401B022801D9032026E790487E
:1025400008380068C0F340000028F1D1207800F07E
:10255000080008282CD16069A8B101208A490860C8
:10256000FFF7ACFC054606E0FFF7A8FC401B02287D
:1025700001D903200AE782486C300068C0F34000AC
:102580000028F1D014E000207F490860FFF796FC96
:10259000054606E0FFF792FC401B022801D9032004
:1025A000F4E677486C300068C0F340000028F1D1B1
:1025B000207800F00400042870D1002770483830DB
:1025C000006800F0805090B900BF002000906C4877
:1025D0003830006840F0805069493831086008465A
:1025E000006800F08050009000BF00BF01276748DE
:1025F000006800F48070B0B96448006840F48070EE
:1026000062490860FFF75AFC054606E0FFF756FCF2
:10261000401B022801D90320B8E65C48006800F49A
:1026200080700028F2D000BFA068012808D154486B
:102630006830006840F001005149683108601DE0D1
:10264000A06805280DD14E486830006840F00400AD
:102650004B49683108600846006840F00100086096
:102660000CE047486830006820F0010044496831B8
:1026700008600846006820F00400086000BFA068F9
:10268000A8B1FFF71BFC054609E0FFF717FC401B4C
:1026900041F28831884202D9032077E626E03848A3
:1026A00068300068C0F340000028EED013E0FFF768
:1026B00005FC054608E0FFF701FC401B41F28831AC
:1026C000884201D9032061E62D4868300068C0F3D4
:1026D00040000028EFD1012F07D129483830006889
:1026E00020F0805026493831086000BFA0690028DA
:1026F00045D02348006800F00C0008285DD0A06990
:10270000022845D100201F490866FFF7D7FB054680
:1027100006E0FFF7D3FB401B022801D9032035E672
:10272000174808380068C0F340600028F1D1D4E9A8
:1027300007010843616A40EA81110122A06AC2EBE5
:10274000500041EA00412C20005D41EA00600C4944
:10275000091F086001200B490866FFF7AFFB05461B
:1027600006E0FFF7ABFB401B022801D903200DE672
:10277000034808380068C0F340600028F1D03FE00B
:102780000838024000004742800E47420070004077
:1027900000201C490866FFF791FB054606E0FFF79D
:1027A0008DFB401B022801D90320EFE51648006885
:1027B000C0F340600028F2D122E0A069012800D1D6
:1027C000E4E511480830066806F48001E0698142BA
:1027D00014D106F03F01206A81420FD147F6C07044
:1027E0003040616A884209D106F44031A06A8142D2
:1027F00004D106F07061E06A814201D00120C5E594
:102800000020C3E5000047420038024010B50446EE
:102810000CB9012010BD606A00B900BF0021A1629F
:1028200094F8510028B9002084F85000204600F0A8
:1028300033F8022084F851002068006820F040003E
:1028400021680860D4E901010843E168084321696F
:10285000084361690843218B01F400710843E16971
:102860000843216A0843A16A0843216808600421DB
:10287000A06901EA1040616A084321684860206845
:10288000C06920F400602168C861002060650120F3
:1028900084F851000020BDE710B586B0044614212D
:1028A00001A8FDF71EFE1B49206888422FD100BFFA
:1028B000002000901848006840F4805016490860D5
:1028C0000846006800F48050009000BF00BF00BFC1
:1028D0000020009010481438006840F001000E49B4
:1028E000143908600846006800F00100009000BF3D
:1028F00000BFE020019002200290002003900320FE
:1029000004900520059001A90448FFF7C9F906B015
:1029100010BD000000300140443802400000024079
:102920002DE9F8430446884616461D464FF0000937
:102930006068B0F5827F0DD1A06858B9042084F892
:1029400051003346424641462046009500F06BF95F
:10295000BDE8F88300BF94F85000012801D102209F
:10296000F6E7012084F8500000BFFFF7A7FA0746FA
:1029700094F85100012802D04FF0020978E0B8F134
:10298000000F00D016B94FF0010971E0042084F85F
:10299000510000206065C4F83880A687E687206370
:1029A000A086E08620646064A068B0F5004F05D181
:1029B0002068006820F48040216808602068006872
:1029C00000F04000402805D02068006840F040003A
:1029D00021680860E068F8B91AE02068806800F0B3
:1029E000010050B12068007BA16B0870A06B401CF7
:1029F000A063E08F401EE0870AE0FFF75FFAC01B8C
:102A0000A84201D3681C00B915B94FF003092FE0A3
:102A1000E08F0028E1D11EE01AE02068806800F015
:102A2000010050B12068C068A16B0880A06B801CB9
:102A3000A063E08F401EE0870AE0FFF73FFAC01B6B
:102A4000A84201D3681C00B915B94FF003090FE083
:102A5000E08F0028E1D13A462946204604F064F987
:102A600008B120206065606D08B14FF0010900BF1A
:102A7000012084F8510000BF002084F8500000BFFE
:102A8000484665E72DE9F84F0446884616461D4638
:102A90004FF0000A00BF94F85000012802D1022034
:102AA000BDE8F88F012084F8500000BFFFF706FA58
:102AB0000746B14694F85100012802D04FF0020AAF
:102AC000A7E0B8F1000F00D016B94FF0010AA0E05E
:102AD000032084F8510000206065C4F83080A68689
:102AE000E686A063A087E08760642064A068B0F5F4
:102AF000004F05D12068006840F4804021680860DC
:102B00002068006800F04000402805D02068006878
:102B100040F0400021680860E068B0F5006F2FD1F8
:102B2000606810B1B9F1010F09D1206B00882168EC
:102B3000C860206B801C2063E08E401EE0861BE096
:102B40002068806800F0020002280AD1206B00880B
:102B50002168C860206B801C2063E08E401EE086E8
:102B60000AE0FFF7ABF9C01BA84201D3681C00B90B
:102B700015B94FF0030A4CE0E08E0028E0D12EE0BA
:102B8000606810B1B9F1010F09D1206B007821689C
:102B90000873206B401C2063E08E401EE0861BE023
:102BA0002068806800F0020002280AD1206B0078BB
:102BB00021680873206B401C2063E08E401EE08675
:102BC0000AE0FFF77BF9C01BA84201D3681C00B9DB
:102BD00015B94FF0030A1CE0E08E0028E0D13A4618
:102BE0002946204604F0EAF808B120206065A06874
:102BF00050B900BF002000902068C0680090206895
:102C00008068009000BF00BF606D08B14FF0010AFE
:102C100000BF012084F8510000BF002084F850005C
:102C200000BF50463CE72DE9FF5F044688469146C9
:102C30001D460E9E012002900020019000BF94F8D6
:102C40005000012803D1022004B0BDE8F09F01200C
:102C500084F8500000BFFFF731F9074694F851B0EF
:102C600060680390AA46BBF1010F0BD00398B0F542
:102C7000827F04D1A06810B9BBF1040F02D00220FA
:102C80000190DBE0B8F1000F03D0B9F1000F00D0E4
:102C900015B901200190D1E094F85100042802D028
:102CA000052084F8510000206065C4F83890E5875D
:102CB000A587C4F83080E586A58620646064206816
:102CC000006800F04000402805D02068006840F00F
:102CD000400021680860E068B0F5006F4AD1606884
:102CE00010B1BAF1010F09D1206B00882168C860CA
:102CF000206B801C2063E08E401EE08633E020685D
:102D0000806800F00200022810D1E08E70B10298B5
:102D100001280BD1206B00882168C860206B801CC3
:102D20002063E08E401EE0860020029020688068CC
:102D300000F0010068B1E08F58B12068C068A16B55
:102D40000880A06B801CA063E08F401EE0870120FC
:102D50000290FFF7B3F8C01BB04204D3701C10B14F
:102D6000032001906AE0E08E0028C8D1E08F00289F
:102D7000C5D14AE0606810B1BAF1010F09D1206BEA
:102D8000007821680873206B401C2063E08E401E91
:102D9000E08634E02068806800F00200022810D14C
:102DA000E08E70B1029801280BD1206B0078216869
:102DB0000873206B401C2063E08E401EE0860020DC
:102DC00002902068806800F0010068B1E08F58B17F
:102DD0002068C068A16B0870A06B401CA063E08FE6
:102DE000401EE08701200290FFF768F8C01BB04248
:102DF00001D3701C00B916B9032001901EE0E08ECB
:102E00000028C7D1E08F0028C4D13A463146204679
:102E100003F0D4FF20B101200190202060650DE077
:102E2000A06850B900BF002000902068C0680090E2
:102E300020688068009000BF00BF00BF012084F8B8
:102E4000510000BF002084F8500000BF0198FBE64D
:102E50007047704730B502460B4600BF92F83C0001
:102E6000012801D1022030BD012082F83C0000BFC2
:102E7000022082F83D00106844681068816824F0E0
:102E800070041868044310684460184D1068A84224
:102E90001BD01068B0F1804F17D0154D1068A842B4
:102EA00013D0144D1068A8420FD0134D1068A842DB
:102EB0000BD0124D1068A84207D0114D1068A842DF
:102EC00003D0104D1068A84205D121F08001586848
:102ED000014310688160012082F83D0000BF00209E
:102EE00082F83C0000BF00BFBDE7000000000140C9
:102EF0000004004000080040000C004000040140B5
:102F0000004001400018004010B504460CB90120F3
:102F100010BD94F83D0028B9002084F83C002046FC
:102F200000F00CF8022084F83D00211D206801F01B
:102F30002FF8012084F83D000020E9E770470146A2
:102F40000868C06840F001000B68D86008688068B5
:102F500000F00702062A05D00868006840F001006A
:102F60000B68186000207047704710B50446206851
:102F70000069C0F34000D8B12068C068C0F34000C9
:102F8000B0B16FF00200216808610120207720684D
:102F9000806900F0030018B12046FFF7E5FF05E067
:102FA000204600F0DFF8204600F096F90020207758
:102FB00020680069C0F38000D8B12068C068C0F301
:102FC0008000B0B16FF00400216808610220207712
:102FD0002068806900F4407018B12046FFF7C4FFF4
:102FE00005E0204600F0BEF8204600F075F900200C
:102FF000207720680069C0F3C000D8B12068C0689D
:10300000C0F3C000B0B16FF008002168086104206F
:1030100020772068C06900F0030018B12046FFF750
:10302000A3FF05E0204600F09DF8204600F054F98B
:103030000020207720680069C0F30010D8B1206814
:10304000C068C0F30010B0B16FF0100021680861D3
:10305000082020772068C06900F4407018B120462D
:10306000FFF782FF05E0204600F07CF8204600F0E4
:1030700033F9002020772068006900F0010058B182
:103080002068C06800F0010030B16FF001002168D5
:103090000861204600F022F920680069C0F3C010E2
:1030A00058B12068C068C0F3C01030B16FF0800024
:1030B000216808612046FFF7CBFE20680069C0F355
:1030C000801058B12068C068C0F3801030B16FF034
:1030D000400021680861204600F00CF92068006972
:1030E000C0F3401058B12068C068C0F3401030B140
:1030F0006FF02000216808612046FFF7AAFE10BD8E
:1031000010B586B00446142101A8FDF7EAF912496A
:10311000206888421DD100BF002000900F48006841
:1031200040F002000D4908600846006800F0020007
:10313000009000BF00BF4FF4707001900220029019
:103140000020039004900220059001A90448FEF796
:10315000A7FD06B010BD0000000800403038024056
:1031600000040240704770B504460D46164600BF85
:1031700094F83C00012801D1022070BD012084F8A0
:103180003C0000BF022084F83D0036B1042E1BD065
:10319000082E31D00C2E5ED145E02946206803F080
:1031A00097FE2068806940F00800216888612068E7
:1031B000806920F00400216888612068806929699D
:1031C00008432168886147E02946206800F04CFFE9
:1031D0002068806940F40060216888612068806907
:1031E00020F480602168886120688069296940EA4C
:1031F0000120216888612FE02946206803F0A0FEA5
:103200002068C06940F008002168C8612068C06972
:1032100020F004002168C8612068C069296908435A
:103220002168C86118E02946206803F0C5FE2068BF
:10323000C06940F400602168C8612068C06920F45A
:1032400080602168C8612068C069296940EA01205E
:103250002168C86100E000BF00BF012084F83D0084
:1032600000BF002084F83C0000BF00BF85E710B518
:1032700004460CB9012010BD94F83D0028B9002087
:1032800084F83C00204600F00DF8022084F83D0050
:10329000211D206800F07CFE012084F83D00002004
:1032A000E9E7000008B50A4A016891420FD100BF62
:1032B000002100910749096841F00401054A1160A5
:1032C0001146096801F00401009100BF00BF08BD6C
:1032D00000080040403802407047000010B5044626
:1032E00003492068884201D1FEF7EEFD10BD0000C1
:1032F00000200040704770B50446002520684069F2
:10330000C0F3C01594F8390021280ED16DB12068A2
:10331000406920F0800021684861206B10B1206B6B
:10332000FEF729FA204604F02BF920684069C0F323
:10333000801594F83A0022280ED16DB120684069BA
:1033400020F0400021684861606B10B1606BFEF7AF
:1033500012FA204604F004F9002070BD7047000006
:103360002DE9F0470446206805682068C668206893
:1033700047694FF00008C14605F00F08B8F1000F8B
:103380000AD105F0200038B106F0200020B1204617
:1033900004F058F8BDE8F087B8F1000F72D007F0DC
:1033A000010018B906F4907000286BD005F00100F8
:1033B00030B106F4807018B1E06B40F00100E063BA
:1033C00005F0040030B107F0010018B1E06B40F0E7
:1033D0000200E06305F0020030B107F0010018B10F
:1033E000E06B40F00400E06305F0080048B106F02F
:1033F000200010B907F0010018B1E06B40F00800A0
:10340000E063E06B70B305F0200028B106F0200007
:1034100010B1204604F016F820684069C0F3801906
:10342000E06B00F0080010B9B9F1000F23D020467E
:1034300004F096F82068406900F04000402816D15A
:103440002068406920F0400021684861606B50B1FD
:103450001748616B0865606BFEF7E2F910B1606BAD
:10346000016D88470CE02046FFF778FF08E0204612
:10347000FFF774FF04E02046FFF770FF0020E063D1
:1034800088E7FFE705F0800030B106F0800018B152
:10349000204604F02AF87DE705F0400030B106F040
:1034A000400018B1204604F098F873E700BF71E7B8
:1034B000FB75000810B504460CB9012010BDA069C9
:1034C00000B100E000BF94F8390028B9002084F86A
:1034D0003800204600F028F8242084F839002068BD
:1034E000C06820F400502168C860204603F0B6FD93
:1034F0002068006920F490402168086120684069D4
:1035000020F02A00216848612068C06840F400501B
:103510002168C8600020E063202084F8390084F826
:103520003A000020CAE7000010B586B00446142116
:1035300001A8FCF7D6FFC7492068884256D100BFD2
:1035400000200090C448006840F01000C2490860A4
:103550000846006800F01000009000BF00BF00BFE8
:1035600000200090BC481438006840F00100BA49BF
:10357000143908600846006800F00100009000BFA0
:1035800000BF4FF4C0600190022002900020039021
:10359000032004900720059001A9B048FEF780FBA6
:1035A000AF48B04908604FF0006048600021AD4866
:1035B0008160C1604FF480610161002141618161DE
:1035C000C16101624162FEF75FFA08B1FDF7A5F83B
:1035D00000BFA4486063846300BF0022052125204A
:1035E000FEF71CFD2520FEF709FD31E19E4920680C
:1035F000884257D100BF002000909748001F006804
:1036000040F400309449091F08600846006800F43F
:103610000030009000BF00BF00BF002000908E4827
:103620001438006840F001008B49143908600846DE
:10363000006800F00100009000BF00BF0C20019066
:1036400002200290002003900320049007200590A0
:1036500001A98248FEF724FB8448854908604FF0A1
:1036600000604860002182488160C1604FF4806141
:103670000161002141618161C16101624162FEF726
:1036800003FA08B1FDF749F800BF79486063846325
:1036900000BF002205212620FEF7C0FC2620FEF7F1
:1036A000ADFCD5E073492068884259D100BF0020A5
:1036B00000906948001F006840F480206649091F97
:1036C00008600846006800F48020009000BF00BF3A
:1036D00000BF0020009060481438006840F00200ED
:1036E0005D49143908600846006800F00200009047
:1036F00000BF00BF4FF44060019002200290002004
:103700000390032004900720059001A95A48FEF772
:10371000C7FA56486038594908604FF00060486061
:10372000002156488160C1604FF480610161002131
:1037300041618161C16101624162FEF7A5F908B191
:10374000FCF7EBFF00BF4D486063846300BF0022BD
:1037500005212720FEF762FC2720FEF74FFC77E0CB
:1037600047492068884273D100BF002000903A4842
:10377000006840F02000384908600846006800F002
:103780002000009000BF00BF00BF00200090324822
:103790001438006840F004002F49143908600846C6
:1037A000006800F00400009000BF00BFC02001903E
:1037B000022002900020039003200490082005902E
:1037C00001A93048FEF76CFA254818382E490860E0
:1037D0008005486000212C488160C1604FF4806101
:1037E0000161002141618161C16101624162FEF7B5
:1037F0004BF908B1FCF791FF00BF23486063846375
:1038000000BF17486030214908604FF020604860D1
:1038100040211E4881600021C1604FF48061016138
:10382000002141618161C16101624162FEF72CF9B1
:1038300008B1FCF772FF00BF14482063846300BF27
:10384000002205214720FEF7E9FB4720FEF7D6FBC3
:1038500006B010BD00100140443802400000024094
:10386000406402402404002000440040886002407C
:10387000840400200048004000040240E4040020CA
:10388000001401400008024044050020A405002067
:1038900077B581B00446154694F83A00202850D1F7
:1038A000029800B115B9012004B070BD00BF94F8B2
:1038B0003800012801D10220F6E7012084F8380001
:1038C00000BF0298A062A5850020E063222084F852
:1038D0003A001D48616BC8631C48616B08641C4852
:1038E000616BC8640020616B086502AE32682368B2
:1038F000191D2B46606BFEF73DF900BF00200090BC
:1039000020680068009020684068009000BF00BFF9
:1039100000BF002084F8380000BF2068C06840F471
:1039200080702168C8602068406940F0010021680B
:1039300048612068406940F04000216848610020EB
:10394000B2E70220B0E70000957500085375000843
:103950000D700008704770472DE9F84304460D4686
:1039600016461F464FF0000994F8390020285DD113
:1039700005B116B90120BDE8F88300BF94F83800FE
:10398000012801D10220F6E7012084F8380000BFA9
:103990000020E063212084F83900FEF78FFA814689
:1039A000A684E68400BF002084F8380000BF2BE026
:1039B000E08C401EE084A068B0F5805F16D14B46D5
:1039C000002280212046009703F021FE08B1032049
:1039D000D1E7A846B8F80000C0F3080021684860A5
:1039E000206908B9AD1C0FE06D1C0DE04B460022AC
:1039F00080212046009703F00AFE08B10320BAE7B1
:103A000015F8010B21684860E08C0028D0D14B46A6
:103A1000002240212046009703F0F9FD08B1032061
:103A2000A9E7202084F839000020A4E70220A2E7BB
:103A3000704700BFFEE700001FB500200090019016
:103A4000029003902648274908604FF48030486070
:103A5000002124488160012101610176002180F864
:103A60002010C162204981620021C1600421C1612E
:103A7000012180F830104161FDF716F808B1FCF71C
:103A80004CFE0A200090012001900520029069461A
:103A90001448FCF743FE08B1FCF73FFE0B200090F2
:103AA0000220019069460F48FCF738FE08B1FCF788
:103AB00034FE0C2000900320019069460948FCF771
:103AC0002DFE08B1FCF729FE0D2000900420019086
:103AD00069460448FCF722FE08B1FCF71EFE1FBD34
:103AE00000200140940100200100000F10B50F4894
:103AF0000F4908600320486000210D488160C160C3
:103B00004FF4002101614FF4401141610021017621
:103B10000121417600218176C17601774177FDF759
:103B200052FC08B1FCF7F9FD10BD00000064004034
:103B30003C02002010B50F480F4908600320486080
:103B400000210D488160C1604FF4002101614FF4F4
:103B500040114161002101760121417600218176E9
:103B6000C17601774177FDF72EFC08B1FCF7D5FD52
:103B700010BD0000006800406402002008B500BFCE
:103B8000002000902648006840F480002449086026
:103B90000846006800F48000009000BF00BF00BF2E
:103BA000002000900846006840F4001008600846B5
:103BB000006800F40010009000BF00BF0022052143
:103BC0000C20FEF72BFA0C20FEF718FA0022052134
:103BD0001020FEF723FA1020FEF710FA002205212C
:103BE0003820FEF71BFA3820FEF708FA00220521DC
:103BF0003920FEF713FA3920FEF700FA00220521DA
:103C00003A20FEF70BFA3A20FEF7F8F900220521D8
:103C10004520FEF703FA4520FEF7F0F908BD000045
:103C20003038024000B587B0142102A8FCF759FCD7
:103C300000BF002001903F48006840F004003D496B
:103C400008600846006800F00400019000BF00BF53
:103C500000BF002001900846006840F08000086026
:103C60000846006800F08000019000BF00BF00BF60
:103C7000002001900846006840F0010008600846F6
:103C8000006800F00100019000BF00BF00BF0020ED
:103C900001900846006840F002000860084600688D
:103CA00000F00200019000BF00BF00221021224856
:103CB000FEF7FEF8002220212048FEF7F9F8002246
:103CC0003B211F48FEF7F4F84FF4604002901D4876
:103CD00003900020049002A91848FDF7E1FF10208E
:103CE00002900120039000200490059002A9124840
:103CF000FDF7D6FF202002900120039000200490C1
:103D0000059002A90D48FDF7CBFF3B200290012052
:103D1000039000200490059002A90948FDF7C0FF18
:103D2000002205212820FEF779F92820FEF766F900
:103D300007B000BD303802400000024000080240D9
:103D4000000402400000111010B50E480E49086032
:103D50004FF48270486000210B488160C1600161AE
:103D600041614FF4007181610021C16101624162D2
:103D700081620A21C162FEF749FD08B1FCF7CDFC62
:103D800010BD0000003001408C02002000B589B059
:103D90000020079008901C216846FCF7A2FB2448ED
:103DA000244908605320486000212248816040F681
:103DB000B731C160002101618161FFF758FA08B194
:103DC000FCF7ABFC00200790089007A91948FFF703
:103DD00041F808B1FCF7A1FC6020009000200190A0
:103DE00002900490002269461248FFF7BCF908B11E
:103DF000FCF793FC042269460E48FFF7B4F908B1BA
:103E0000FCF78BFC082269460A48FFF7ACF908B1B9
:103E1000FCF783FC0C2269460648FFF7A4F908B1B9
:103E2000FCF77BFC0348FFF76BF909B000BD00000D
:103E300000080040E402002010B50D480D4908605C
:103E40004FF4E13048604FF480510A48816000210E
:103E5000C1604FF4806101610C21416100218161E9
:103E6000C161FFF727FB08B1FCF757FC10BD00004C
:103E7000001001402403002010B50B480B490860D6
:103E80004FF416504860002108488160C16001610C
:103E90000C21416100218161C161FFF70BFB08B179
:103EA000FCF73BFC10BD0000004400406403002010
:103EB00010B50C480C4908600C4848604FF480511C
:103EC000094881600021C1604FF4806101610C21CB
:103ED000416100218161C161FFF7ECFA08B1FCF793
:103EE0001CFC10BD00480040A4030020A086010077
:103EF00010B50B480B4908604FF41650486000217C
:103F000008488160C16001610C214161002181612B
:103F1000C161FFF7CFFA08B1FCF7FFFB10BD00004D
:103F200000140140E403002000BFFEE770470000DA
:103F300010B500BF502080F31188BFF34F8FBFF33F
:103F40006F8F00BF06F040FC18B14FF0805004495D
:103F5000086000BF002080F3118800BF10BD000082
:103F600004ED00E00548006840F470000349086073
:103F70004FF00060014980390860704788ED00E02B
:103F800010B50248FEF7F1FF10BD00000406002046
:103F900010B50268294B98420ED0B0F1804F0BD07B
:103FA000274B984208D0274B984205D0264B984281
:103FB00002D0264B984203D122F070024B681A437C
:103FC0001E4B984220D0B0F1804F1DD01C4B984220
:103FD0001AD01C4B984217D01B4B984214D01B4B45
:103FE000984211D01A4B98420ED01A4B98420BD0DF
:103FF000194B984208D0194B984205D0184B98425B
:1040000002D0184B984203D122F44072CB681A4375
:1040100022F080034C6943EA040202608B68C362A9
:104020000B688362054B984202D0084B984201D13D
:104030000B6903630123436110BD000000000140D0
:104040000004004000080040000C00400004014053
:104050000040014000440140004801400018004079
:10406000001C00400020004030B5056A25F0100516
:104070000562026A4368846924F4E04424F44074CD
:104080000D6844EA052422F020028D6842EA0512F8
:10409000124DA84200D103E0114DA84207D100BF44
:1040A00022F08002CD6842EA051222F040020B4D58
:1040B000A84202D00A4DA84209D123F4806323F418
:1040C00000634D6943EA85038D6943EA85034360D4
:1040D00084614D688563026230BD000000000140CC
:1040E0000004014010B50248FFF73AF910BD000086
:1040F0002403002010B5034801F02BF80248FFF715
:104100002FF910BD044B00206403002010B500F00F
:104110003DF80248FFF724F910BD0000A403002079
:1041200008B50D480068C06800F0100078B10B4871
:1041300001F00FF800BF00200090074800680068F9
:104140000090054800684068009000BF00BF02482A
:10415000FFF706F908BD0000E4030020384B0020FB
:1041600000BFFEE710B507480068C06840F01000C7
:1041700004490968C860092203490248FFF788FB1F
:1041800010BD000064030020734A002008B51248E7
:1041900000680068C0F30010E8B10F48FFF7ABF803
:1041A00002F090F808B902F00FF819210B48FCF75B
:1041B00076F900BF00200090074800680068009072
:1041C000054800684068009000BF00BF19220349FD
:1041D0000148FFF75DFB08BDA40300205A4A0020F8
:1041E00070B5002413E0C24901EB4410F1EE040A5B
:1041F0009FEDC00A00F020FFBF4901EB4410DFED46
:10420000BF0A9FEDBC0A00F017FF601CC4B2032C6C
:10421000E9DB65E1FDF752FE4FF47A71484300EEA9
:10422000100AB8EE400AB64880ED000A0024FDE00E
:10423000442000F00EFE0546432000F00AFE45EA49
:10424000002000B2AF49C880462000F002FE0546BB
:10425000452000F0FEFD45EA002001B2A948018199
:10426000482000F0F6FD0546472000F0F2FD45EA43
:10427000002001B2A348418162E0442000F0E9FD42
:104280000546432000F0E5FD45EA002000B29D49C7
:10429000C880462000F0DDFD0546452000F0D9FD30
:1042A00045EA002001B297480181482000F0D1FD85
:1042B0000546472000F0CDFD45EA002001B29148B7
:1042C000418191480088401C8F490880FDF7F6FD28
:1042D0004FF47A71484300EE100AB8EE400A88485D
:1042E000D0ED000A30EE600A9FED881AC0EE010A98
:1042F000B1EE040AF4EEC00AF1EE10FA20DD00205F
:104300001AE0834A411C32F9111000EE101AB8EE7F
:10431000C00ADFED800A80EE201A7F4901EB8001A0
:1043200081ED001A0121774ABD3211540021D13AA2
:1043300022F81010411CC8B20328E2DB002070BD37
:104340007048B0F90600002803DD6E48B0F9060099
:1043500003E06C48B0F90600404270490988884281
:104360008BDC6848B0F90800002803DD6548B0F927
:10437000080003E06348B0F90800404267494988F3
:104380008842EDDC5F48B0F90A00002803DD5D4893
:10439000B0F90A0003E05B48B0F90A0040425F4907
:1043A00089888842DCDC00203CE05649891D31F8D0
:1043B000102000EB4001C1EBC01357490C3101EB59
:1043C0004311504B143B33F8103021F8132000EB0D
:1043D0004001C1EBC01250490C3101EB4211494A76
:1043E000143A32F8102031F9121000EE101AB8EE1B
:1043F000C00A4449203901EB8001D1ED000A30EEBA
:10440000200A4049203901EB800181ED000A3D4935
:10441000143931F81010491C3A4A143A22F8101095
:10442000411CC8B20328C0DB601C84B2B4F5FA6F2B
:10443000FFF6FEAE34480088B0F5967F16DD00200A
:104440003149088000BF0EE09FED350A2D49203923
:1044500001EB800181ED000A00212A4A143A22F87A
:104460001010411CC8B203283ADAEDE700202CE016
:104470002449203901EB800191ED000ADFED290A82
:1044800080EE201A244901EB800181ED001A2649B3
:1044900001EB800181ED001A1F4901EB800191EDD4
:1044A000000ABDEEC00A10EE101A4FF4967211FB0E
:1044B00002F10AB2164B411C23F811200021114AC7
:1044C000143A22F81010411CC8B20328D0DB10485F
:1044D0000088401C00B20E49088000201349087073
:1044E0001248007800287FF495AE012027E70000ED
:1044F000287C002000007A44887C00200000A04234
:1045000040010020907A00203C01002000247449E2
:10451000E000002000009643844B0020C8000020EB
:10452000000000000000FA44784B00203E0100200B
:1045300000B58BB000200A90079001200890002061
:1045400001900290039004900590012009900020B2
:10455000069001A90F48FCF7BFFC08B100BFFEE7B9
:104560000C48FDF7D2F802210A48FCF7F5FB0E20B3
:10457000069001A90848FCF7AFFC08B100BFFEE7B0
:104580000548FDF7C2F802210348FCF7E5FB0BB034
:1045900000BD00003C0200206402002008B500BFFE
:1045A000002000900B4800680068009009480068EF
:1045B0004068009000BF00BF06480068C06840F037
:1045C000100004490968C860192203490148FFF72F
:1045D0005FF908BDA40300205A4A0020F0EE401AFB
:1045E000B0EE610AF4EEE01AF1EE10FA01DBB0EE83
:1045F000600AF4EEC11AF1EE10FA01D8B0EE410AE9
:104600007047000070B50B460021002400250022F1
:10461000DFED160AB0EE600A048805880688324489
:10462000012110E030F81160A64201DD30F81140A0
:1046300030F81160AE4201DA30F8115030F81160F4
:1046400032444E1CF1B29942ECDB161B721B9E1ECB
:1046500000EE906AB8EEE01A00EE902AF8EE600ADA
:10466000C0EE811AB0EE610A70BD000000000000CB
:1046700010B50D48407A0C49097A01EB810100EB35
:1046800041000A4908800848008848800648408858
:10469000888005484089C8800A464FF480710448E4
:1046A00000F0A6FB10BD0000444A00207401002069
:1046B0006402002000B585B0142206496846FBF765
:1046C000BCFE0021684605F069FA0349086005B0A0
:1046D00000BD000058B700080400002010B50D48C8
:1046E00040890D4908800B48008848800948407A75
:1046F0000849097A01EB810100EB410006498880F5
:1047000004484088C8800A4640F20111034800F07E
:104710006FFB10BD444A00206C01002064020020A1
:104720000FB5F0EE400AB7EE080A8DED000AB6EEBE
:10473000000A20EE800A8DED020ACDED010A9DED02
:10474000010A10EE100A03900F490398A1EB6000D4
:104750000390039800EE100A8DED010A9DED020A08
:104760009DED011A20EE011ADDED011A9DED000A02
:1047700001EE610A9DED011A20EE010A8DED010A9C
:104780009DED010A0FBD0000865A375F10B58021EC
:104790006B2002F02DF801216B2002F029F8042192
:1047A0001A2002F025F820216A2002F021F80021C9
:1047B000192002F01DF818211B2002F019F8002121
:1047C0001C2002F015F806211D2002F011F85D21D1
:1047D000242002F00DF801210B2000F0F9FB10213C
:1047E0000A2000F0F5FB1F210A2000F0F1FB032254
:1047F0001049102000F0D4FB10210A2000F0E8FB43
:104800008C21252001F0F4FF0221262001F0F0FF89
:104810008821272001F0ECFF16210A2000F0D8FBA8
:104820000921342001F0E4FF8121672001F0E0FF3D
:1048300010BD00009000002000B52DED028B8DB062
:1048400000200A900B900C902422F24901A8FBF75B
:10485000F4FDFDF733FB4FF47A714843EE490860ED
:10486000EE48006868B108460068EC490968401ADB
:1048700000EE100AF8EE400A9FEDE91A80EE810A78
:1048800001E09FEDE80AB0EE408AE3480068E349A2
:10489000086000F067FDE44890ED023AF0EE432A2C
:1048A00090ED013AB0EE432AA0F55C7090EDDC3A51
:1048B000F0EE431ADC4890ED053AB0EE431A90ED65
:1048C000043AF0EE430A90ED033AB0EE430AF0EEFC
:1048D000485AD64890ED005AD548D0ED004A9FED91
:1048E000D14ADFEDD03A9FEDCF3A01F0A7F8D14899
:1048F00090ED000AD048D0ED000A30EE200ACF48F3
:10490000D0ED000A30EE600ACD48D0ED000A30EE5E
:10491000600A8DED010ACB4890ED000ACA48D0ED3F
:10492000000A20EE200AC948D0ED000AC84890EDE0
:10493000001A00EE810AF0EE000A20EE200A8DED4A
:10494000020AC04890ED000AC148D0ED000A20EEEE
:10495000200ABE48D0ED000ABB4890ED001A00EED8
:10496000C10AF0EE000A20EE200A8DED030A90ED58
:10497000000AB748D0ED000A20EE200AB348D0ED77
:10498000000AB04890ED001A00EE810AF0EE000A2D
:1049900020EE200A8DED060AA64890ED000AA648F2
:1049A000D0ED000A30EE600AA448D0ED000A30EEE7
:1049B000600AA348D0ED000A30EE200A8DED090A06
:1049C0009DED091AF0EE410A9DED061AB0EE410A7E
:1049D00003F0F8FC8DED0A0ADDED030AB0EE600A83
:1049E00003F05AFCB1EE400A8DED0B0A9DED011A61
:1049F000F0EE410A9DED021AB0EE410A03F0E2FC2E
:104A00008DED0C0A9DED0A0ADFED920A20EE200AD8
:104A1000914880EDEF0A9DED0B0ADFED8E0A20EE46
:104A2000200A80EDF00A9DED0C0AB1EE400ADFEDA0
:104A3000890A20EE200A80EDF10AD0EDEF0AB0EEEF
:104A4000600A002000F044FC834880EDE60AD0EDC7
:104A5000F00AB0EE600A012000F03AFC72482830FB
:104A600080ED010A7C48D0EDF10AB0EE600A022028
:104A700000F02EFC6C48283080ED020A764890ED5C
:104A8000E90AD0EDEC0A9FED751A60EE810A00EE9E
:104A9000880A80EDE90A00F5697090ED010A0C3092
:104AA000D0ED010A9FED6D1A60EE810A00EE880AD2
:104AB0000C3880ED010A90ED020A0C30D0ED020AAC
:104AC0009FED661A60EE810A00EE880A0C3880EDD0
:104AD000020A9838B0F90600002804DD524864380C
:104AE000B0F9060004E050486438B0F906004042CE
:104AF000012873DC4C486438B0F90800002804DD54
:104B000049486438B0F9080004E047486438B0F90F
:104B100008004042012874DC43486438B0F90A00B8
:104B2000002804DD40486438B0F90A0004E03E483B
:104B30006438B0F90A004042012862DC4848B0F904
:104B40000C0F012801DC012000E00020002808DD16
:104B50004348B0F90C0F012801DC01200AE00020D5
:104B600008E03F48B0F90C0F012801DC012000E00B
:104B70000020404290B32C486438B0F9020001286C
:104B800001DC012000E00020002809DD264864380F
:104B9000B0F90200012801DC01200BE0002009E04F
:104BA00021486438B0F90200012801DC012000E04E
:104BB0000020404290B11C486438B0F9040001283C
:104BC00001DC012000E0002000280ADD16486438DE
:104BD000B0F90400012802DC01200CE011E0002003
:104BE00009E011486438B0F90400012801DC012013
:104BF00000E00020404220B10021194880F8C81F81
:104C000003E00121164880F8C81F0DB0BDEC028BEF
:104C100000BD00008CB700083801002034010020DE
:104C20000024744900000000F47A0020C400002031
:104C3000C0000020080100201801002024010020ED
:104C40002C010020EC000020F0000020E8000020F3
:104C5000F4000020E12E65428477002000007A3DB8
:104C6000846B002000B593B0302107A8FBF739FC16
:104C7000142102A8FBF735FC00BF00200190244856
:104C8000006840F08050224908600846006800F043
:104C90008050019000BF00BF00BF002001901D4860
:104CA000006840F480401B4908600846006800F432
:104CB0008040019000BF00BF0120079000040890D1
:104CC00002200D9041050E9104210F91A821109111
:104CD000022111910421129107A8FDF753FB08B19D
:104CE000FBF71BFD0F200290022003900020049090
:104CF0004FF4A05005904FF480500690052102A873
:104D0000FDF7DEF908B1FBF708FD13B000BD0000A8
:104D10004038024000700040B0EE401A9FED2D0A6E
:104D2000F0EE400A9FED2B0AF0EE401A90ED000ADB
:104D3000B5EEC00AF1EE10FA02D8B0EE410A7047A3
:104D400090ED062AD0ED012AB0EE410A02EE620A89
:104D500090ED072AD0ED022A02EE620AF0EE400A38
:104D600010EE901A00BF21F00042C2F1FF42D20FB4
:104D70000AB1012200E000227AB910EE901A0A4628
:104D80004FF07F43B3EB420F01D1012300E000233A
:104D90000BB1012200E000220AB1F0EE410A90EDD1
:104DA000060A90ED042A20EE020A90ED032A00EE96
:104DB000820A90ED072AD0ED052A02EE220AF0EED3
:104DC000401A90ED060A80ED070AC0ED060AB0EE23
:104DD000610AB4E70000000010B54FF4C872024940
:104DE0000248FBF7F7FE10BD344300209401002079
:104DF000F0B589B006460D4614462088000A8DF8A5
:104E0000000020788DF801006088000A8DF802000B
:104E1000A0788DF80300A088000A8DF8040020799E
:104E20008DF80500E088000A8DF80600A0798DF85D
:104E3000070002950020059004900820069008AB1A
:104E40006A4602A93046FBF79CFF0746384609B080
:104E5000F0BD38B5044601226946204600F004F84A
:104E60009DF8000038BD0000F8B504460D46164612
:104E700044F080000A49087001F0D2FC05200123AB
:104E8000084A074900900848FDF7CDFE0523324641
:104E900029460548FDF744FD01F0CCFCF8BD0000B3
:104EA00093000020940000208C02002010B51648CA
:104EB000407A1549097A01EB810100EB4100134961
:104EC00008800846B0F900001149B1F90010884285
:104ED00014D00F490878022101F012FA0B49087822
:104EE000002101F00DFA09490878012101F008FAC2
:104EF0000648B0F900000649088004E00449087833
:104F0000012101F0FDF910BD444A00208E0100206E
:104F10009001002070B504460D46012020712560E7
:104F20000021A1850121302001550E212E2001559F
:104F300002212F20015520680068C06840F0100051
:104F400021680968C8604521204600F0EBF808B1E7
:104F5000002020710822611D2068FEF799FC70BDB9
:104F60004178027841EA022109B20C4A1180C178E5
:104F7000827841EA022109B2084A518041790279D6
:104F800041EA022109B2054A9180C179827941EA58
:104F9000022109B2014AD180704700005601002069
:104FA00070B504460E4615468C21252001F020FCE4
:104FB0002146262001F01CFC05F18000C1B227200B
:104FC00001F016FC2A4631464920FFF74DFF70BD1F
:104FD00070B504460D460C21252001F009FC214640
:104FE000262001F005FC8121272001F001FC294643
:104FF000632001F0FDFB70BD4178027841EA022197
:1050000009B20C4A1180C178827841EA022109B2C2
:10501000084A51804179027941EA022109B2054AE0
:105020009180C179827941EA022109B2014AD18095
:10503000704700004E01002010B52DED068B044690
:10504000F0EE409AF0EE608A9FED330AB0EE40AA8F
:105050009FED310AB0EE408A9FED2F0AB0EE409AE4
:1050600089EEA80AB0EE40AA9FED2C0AC0EE0A0A0B
:10507000F0EE60AAB0EE6A0A04F084FAB0EE408A5C
:105080009FED270A03F0C6FAF0EE000A60EE200A50
:10509000B7EE000A00EE880A08EE080AB0EE409A61
:1050A000C4ED008A94ED000AB5EEC00AF1EE10FAE4
:1050B0002FDD28EE080AC0EE090AC4ED030A94EDBC
:1050C000030AF0EE000A20EE200A84ED040A94EDB3
:1050D000030A84ED050AB7EE000A18EE080AF0EE9E
:1050E000000A20EE200AC0EE090AC4ED010A9FED75
:1050F0000C0A03F08FFAF0EE000A60EE200AB7EE19
:10510000000A00EEC80A08EE080AC0EE090AC4ED5B
:10511000020ABDEC068B10BD00000000DB0F494009
:10512000DB0F493F38B504460D46A5208DF8000039
:105130008DF801509DF800009DF801100844C0B2A0
:105140008DF802006423032269462068FEF704FC00
:1051500038BD10B50446204601F01CFB0020C4F801
:105160000500C4F809000822611D2068FEF790FBC5
:1051700010BD70B50446002006E003EB800534F84E
:10518000155021F81050401CD61702EB9676B0EB64
:10519000A60FF2DB70BD000005F010FB1849086097
:1051A00005F086F8FFF7F2FAFFF71AF805F0AAF80B
:1051B000FFF712FEFEF7D6FFFFF7F0F9FFF7B8F999
:1051C00010491148FFF7A6FE10491148FFF7A2FE4B
:1051D0001049114802F0D8FE00BFFFF72DFBFFF782
:1051E0007DFAFFF745FA0D4802F098FC02F0DCFD6D
:1051F000FFF75CFE0121024805F000F9EDE7000031
:10520000BC00002064030020044B0020E4030020C5
:10521000384B0020640200203C020020647E002005
:1052200010B504466068B0F90000002803DD60682E
:10523000B0F9000003E06068B0F900004042218A44
:10524000884240DD94F8200058B9012084F82000FD
:10525000A06890ED000A84ED030AFCF72FFE606160
:1052600034E094ED030AA068D0ED000A30EE600A45
:10527000B5EEC00AF1EE10FA07DD94ED030AA0685E
:10528000D0ED000A30EE600A08E094ED030AA06851
:10529000D0ED000A30EE600AB1EE400AD4ED070A04
:1052A000B4EEE00AF1EE10FA09D2FCF707FE6169EC
:1052B000401AA169884209D90120207010BD002040
:1052C00084F8200002E0002084F8200000BFF5E709
:1052D000F0EE400A1F4901EB800191ED000A30EE2B
:1052E000C00A9FED1D1AB4EEC10AF1EE10FA08DDF6
:1052F0001A4931F81010491E09B2184A22F8101044
:1053000015E0144901EB800191ED000A30EEC00A6E
:105310009FED131AB4EEC10AF1EE10FA07D20F494D
:1053200031F81010491C09B20C4A22F81010094932
:1053300001EB8001C1ED000A084931F810104FF46B
:10534000B47211FB02F100EE101AB8EEC00A30EE92
:10535000200A7047047D00200000344348010020EB
:10536000000034C310B52DED028B0E22F3493B2013
:10537000FFF77AFDF1484078F049097840EA0120CA
:1053800001B2EF48A0F80C1FEC48C078EB498978CF
:1053900040EA012000B2EB494880E8484079E749FB
:1053A000097940EA012000B2E6498880E348C079E3
:1053B000E249897940EA012000B2E24908830846BF
:1053C000B0F9180000EE100AB8EEC00ADFEDDE0AF0
:1053D00080EE201AB3EE050A31EE000A01F16400F6
:1053E00080ED090AD548407AD449097A40EA01207B
:1053F00000B2D449C880D148C07AD049897A40EAFD
:10540000012001B2CF480181CC48407BCB49097BC8
:1054100040EA012001B2CB484181002487E1C9491B
:1054200031F9141000EE901AF8EEE00AB0EE600ABE
:10543000C64901EB4410FFF76FFCC248403000EB57
:10544000840080ED000ABF49891D31F9141000EE77
:10545000901AF8EEE00AB0EE600ABD4901EB441084
:10546000FFF75AFCB7484C3000EB840080ED000A8F
:10547000B4484C3000EB840090ED000AB54800EBD6
:105480008400D0ED000A30EE600AB34800EB8400DF
:10549000D0ED000A30EE200AB04800EB8400D0EDD9
:1054A000000A20EE200AA748A43000EB840080ED1B
:1054B000000AA448A43000EB840090ED000ADFED60
:1054C000A80A20EE200ADFEDA70A20EE200A9D4858
:1054D000703000EB840080ED000A9A48403000EB09
:1054E000840090ED000ADFEDA00A20EE200A954826
:1054F000643000EB840080ED000A9248A43000EB99
:10550000840090ED000AB5EEC00AF1EE10FA06DD57
:105510008C48A43000EB840090ED000A07E0894835
:10552000A43000EB840090ED000AB1EE400A8F48F1
:10553000D0ED000AB4EEE00AF1EE10FA47D2854849
:1055400000EB8400D0ED000A7E480C3030F91400E6
:1055500000EE100AB8EEC00A30EEC00AB5EEC00A7E
:10556000F1EE10FA0FDD7B4800EB8400D0ED000A6D
:1055700074480C3030F9140000EE100AB8EEC00A7E
:1055800030EEC00A10E0734800EB8400D0ED000A52
:105590006C480C3030F9140000EE100AB8EEC00A66
:1055A00030EEC00AB1EE400AF0EE080AB4EEE00AAE
:1055B000F1EE10FA0BD26E48005D401C6C490855A4
:1055C0000846005DC82805DBC820085502E0002019
:1055D000674908556648005D32287DDB04EB4400CE
:1055E000C0EBC4115B480C3000EB41105549143935
:1055F00031F8141030F9110000EE100AB8EEC00AAC
:105600005048203800EB8400D0ED000A30EEC00A8C
:105610004C48203800EB840080ED000A4948801D8A
:1056200030F8141004EB4400C0EBC41249480C30AD
:1056300000EB4210434A143A32F8142020F81210BA
:1056400004EB4400C0EBC41142480C3000EB4110A5
:105650003C49143931F8141030F9110000EE100AE9
:10566000B8EEC00A3748203800EB8400D0ED000ABD
:1056700030EE200A3348203800EB840080ED000A29
:105680003048BD30005D40BB2E48203800EB840020
:1056900090ED000ADFED370A80EE201AB0EE418A65
:1056A000354800EB840090ED000AF6EE001A30EE6B
:1056B000610AB0EE401A304800EB840090ED000A19
:1056C000F6EE001A30EE210AF0EE400AB0EE480A7B
:1056D000FEF784FF1F4801E020E003E000EB8400B8
:1056E00080ED000A1748143830F81400401C1549A2
:1056F000143921F81400084630F81400B0F5FA6F98
:1057000004D1002021F81400D13108559FED1B0A67
:105710000C48A43000EB840080ED000A0948801D8D
:1057200030F81410801D20F81410601CC4B2032C33
:10573000FFF675AEBDEC028B10BD0000F47C0020BE
:10574000846B0020907A00205CEFA643287C002028
:10575000887C0020844B00206C4B0020D40000206B
:1057600000007A3D39FA8E3C0AE81C3AD00000204D
:10577000440100200000FA44784B002000000000A3
:1057800010B52DED060B2DED108BF0EE60EAF0EE6E
:1057900041BAB0EE61CAF0EE42CAB0EE62BAF1EEC2
:1057A0006B0AB1EE6E0A02F02DFDDFED950A30EEC8
:1057B000200AB0EE40DAF1EE6B0A9DED100A02F01D
:1057C00021FDB1EE400AF0EE40DAB0EE4D0A02F0F3
:1057D00021FFB0EE408AB0EE4D0A03F0EDFDF0EE91
:1057E000408AB0EE6D0A02F015FFB0EE40AAB0EEAE
:1057F0006D0A03F0E1FDB0EE409AB5EEC0CAF1EEDD
:1058000010FA04D0B5EEC0BAF1EE10FA07D1B7EE37
:10581000000AB0EE40CAB7EE000AB0EE40BA2CEE75
:105820000A0A6CEEA80A00EE890A6BEE080A00EE7E
:10583000890AB0EE40FA2CEE880AF0EE40FA4BEE00
:1058400068FAF0EE4F0AB1EE6F0A02F0BBFDB0EE5F
:1058500040EAF6EE000A6DEE200AB0EE600A02F0B1
:10586000D9FEB0EE408AF6EE000A6DEE200AB0EEE8
:10587000600A03F0A1FDF0EE408AF6EE000A6DEE3C
:10588000A00AB0EE600A02F0C5FEB0EE40AAF6EE45
:10589000000A6DEEA00AB0EE600A03F08DFDB0EED6
:1058A000409AF6EE000A6EEE200AB0EE600A02F0B0
:1058B000B1FEF0EE40AAF6EE000A6EEE200AB0EE5F
:1058C000600A03F079FDF0EE409A28EE0A0A60EED5
:1058D0002A0A28EE891AB0EE690A41EE000A494800
:1058E000C0ED000A28EE8A0A60EE2A0A28EE091A9C
:1058F000B0EE690A41EE400A4348C0ED000A28EEC6
:10590000090A60EE2A0A28EE8A1AB0EE690A41EE08
:10591000000A3E48C0ED000A68EE0A0AB0EE690AC5
:1059200020EE800A68EE890A00EEEA0A384880ED27
:10593000000A344890ED000A20EE000A354880ED58
:10594000000A304890ED000A2F48D0ED000A20EE02
:10595000200A314880ED000A2A4890ED000A2B48C1
:10596000D0ED000A20EE200A2C4880ED000A2548E0
:1059700090ED000A2648D0ED000A20EE200A2848C3
:1059800080ED000A204890ED000A20EE000A25482C
:1059900080ED000A1C4890ED000A1C48D0ED000A7A
:1059A00020EE200A204880ED000A174890ED000AFA
:1059B0001748D0ED000A20EE200A1C4880ED000AAE
:1059C000124890ED000A20EE000A194880ED000A06
:1059D0000E4890ED000A0E48D0ED000A20EE200A95
:1059E000144880ED000A0A4890ED000A20EE000AF3
:1059F000114880ED000ABDEC108B06B010BD000010
:105A0000560E4940E8000020EC000020F000002085
:105A1000F4000020080100200C01002010010020EB
:105A200014010020180100201C010020200100208A
:105A300024010020280100202C01002000B52DEDBC
:105A40000C0B2DED108B89B0F0EE40BAB0EE60CAB1
:105A5000F0EE41CAB0EE61DAB0EE42AAF0EE62AA10
:105A6000F0EE439AF0EE638AB0EE449AF0EE45DA37
:105A7000B0EE65BA9FEDFE0AB0EE40EA9FEDFC0A7B
:105A8000F0EE40EA9FEDFA0AB0EE40FAF9480078ED
:105A900080B9F0EE492AB0EE682AF0EE691AB0EE4D
:105AA0006A1AF0EE4A0AB0EE4D0AFFF769FE0120CD
:105AB000F0490870F5EEC09AF1EE10FA09D1F5EE52
:105AC000C08AF1EE10FA04D1B5EEC09AF1EE10FAE8
:105AD0007ED069EEA90A48EEA80A49EE090AB0EE9E
